:100000000C9446000C9400000C9400000C9400002A
:100010000C9400000C9400000C9400000C94000060
:100020000C9400000C9400000C9400000C94000050
:100030000C9400000C9400000C9400000C94000040
:100040000C9400000C9400000C9400000C94000030
:100050000C940000295C7F4000000040000001007B
:100060002D4E414E00494E46000080C004006402FF
:100070005400040068025800020004005C00010003
:100080007C025E00020080026A000000F894EE2705
:10009000ECBBF1E0FBBFEBBFE5BFF8E1F1BDE1BDBB
:1000A0008DE0A2E0BB27ED938A95E9F780E098E028
:1000B000A0E6ED930197E9F7ECE6F0E085919591E4
:1000C000009761F0A591B59105901590BF01F001E1
:1000D00005900D920197E1F7FB01F0CFEFE5EDBF41
:1000E000E8E0EEBFC0E6D2E00C947600E0E0EBBBC7
:1000F000EABBE8BBE7BBE7B9E7E8E6B97894E0E03C
:10010000E2BBE0E3E1BBE2EAEFBDEAE1EEBDECE930
:10011000E7BDE0E4E6BDE0E1EA930E945602E0EDCF
:10012000F7E0FBBDEABDF9BDE8BD85E38A95F1F7CF
:10013000EAB5FBB5E03AAFE0FA0751F4E0EDF7E0DD
:10014000FBBDEABDE8B5F9B5E853FF4FF9BDE8BD21
:10015000E8B5F9B5E03AAFE0FA0721F4E0EDF7E0F1
:10016000F9BDE8BD042C052829F4EAB5FBB5749661
:10017000FBBDEABD369A349BFECFE4B1F5B16627EC
:1001800077270E94CA03DF01CB01EDECFCEC6CE4A5
:1001900073E40E94A204E0936002F0936102609312
:1001A0006202709363020E94DA0290F00E94ED02F4
:1001B000E0936402F09365026093660270936702B5
:1001C000E1E0F0E02F01E4E6F0E00E94F6021CC05E
:1001D000E0916802F091690260916A0270916B028D
:1001E000A0916002B09161028091620290916302DD
:1001F0000E94E70409F010F40C9401010E94DA0255
:1002000008F002C0442455240E94ED020E941E05FD
:10021000E2E0EA93ECE6F2E0FA93EA930E9421012D
:10022000E0E0EA93EA930E941802ECE6F2E0FA9327
:10023000EA930E944702ECE2F1E00E94F60275CFD9
:10024000FFCF2497E0E0E883E983EA83EFE3EB83E1
:100250001A930A93EB85FC85EF3FAFEFFA0739F469
:100260000E94FA02E0E6F0E00E94FF02ABC0EF3F1E
:10027000AFE7FA0739F40E94FA02E1E6F0E00E94E3
:10028000FF02A0C0AC85AA2362F4E985FA856B85DC
:100290007C850E945E030E9403030E940803EDE236
:1002A000EC93A885A73010F0E6E0E8871885E12FE9
:1002B0001150E03039F00E940F030E9414030E9495
:1002C0001B03F5CF0E9420030E9404040E94030335
:1002D00010E0E0E0F0E060E87FE30E941B030E9492
:1002E00020030E94E70488F00E940F030E94290364
:1002F0000E941B031F5F173238F00E94FA02E5E6E6
:10030000F0E00E94FF025EC0EACF103029F40E94A4
:100310000803E0E3EC932CC0E12F1150E03041F1F1
:100320000E940F030E941403A0E0B0E080E09FE36E
:100330000E9404040E941E050E94B8020E941B0332
:100340000E9420030E94A2040E9491030E2F0E948B
:1003500008030E9430030E940F030E940F050E94B1
:10036000CA030E9454040E9436030E943B03D4CF68
:10037000E885E03019F10E940803EEE2EC93E8858D
:10038000E150E887EF5FD1F00E9436030E94290315
:100390000E940303E985FA856B857C850E949103A1
:1003A0000E2F0E9408030E9430030E9436030E9411
:1003B0000F050E94CA030E943B03E1CFAE81BF81BB
:1003C000E0E0EC93198108812D960895E881E071B1
:1003D00011F0C49A01C0C498E881E07211F0C59A86
:1003E00001C0C598E881E07411F0C69A01C0C698B2
:1003F000E881E07811F0C79A01C0C7988BE08A9530
:10040000F1F7C29A8BE18A95F1F7C2988BE18A9550
:10041000F1F77DC0E881EA93D9DFE881E295E883CE
:10042000E881EA93D3DF88EC90E00197F1F76FC0A1
:10043000E881F0E0E058FD4FE081A981EA0FEA93FE
:10044000E9DF7980688022960895E2E00E94400307
:10045000ECE0EA93DFDFE1E00E944003E0E06E2E93
:100460007E2E0895A881AA3011F0791448F0E0E0BA
:10047000EA9363946A92DCDFA881AA3009F447C04A
:100480007394C09AE881EA93C5DFC09840C01A937C
:10049000A981BA81ED91A983BA831E2FE03019F0AA
:1004A0001A93E0DFF5CF188123960895BC9ABD9A80
:1004B000BE9ABF9ABA9AB89AB99AC298C098C19887
:1004C0009880E881E058E0938202E881E054E0936C
:1004D0008302E4E1F0E00E94F6020E9446030E94DB
:1004E00046030E944603E0E2EA9370DF80E991E070
:1004F0000197F1F7E8E2EA938DDFE4E0EA938ADF1F
:10050000E5E8EA9387DFE6E0EA9384DF9EDF219661
:1005100008957B816A81F981E88177FB770F67FD18
:100520007160972F9E5781F078F0983190F4AA2748
:10053000BB27882708948795B795A7959A95D1F7F3
:10054000EA23FB23682305C0E8947727EE27FF27DB
:1005500066276F77769508F4606877F9A991B99165
:1005600089919991EA17FB076807790797FB089526
:100570000E944F030E941E050E9489020E941905D5
:1005800019F40E944F0309C0E6F70E944F03A0E050
:10059000B0E080E89FE30E94FD0324960895E9916E
:1005A000F991A991B991CD0105900D920020E1F743
:1005B000FC010895E0916402F09165026091660289
:1005C00070916702A0916002B09161028091620215
:1005D000909163020E94E7040895E0916002F09117
:1005E000610260916202709163020895FA93EA9346
:1005F0000C945203EE81FF81FA93EA930895FA93E3
:10060000EA930C94CF02E987FA876B877C87089579
:10061000AE81BF811196AE83BF8311970895AA81E1
:10062000BB818C819D810895EDECFCEC6CEC7DE34D
:100630000E9454040895EA83FB836C837D830895AC
:10064000EA81FB816C817D81A985BA858B859C853A
:100650000895E0E0F0E060E271E40E94540408953F
:10066000E02FE05DEC93E02FF0E00895A985BA85D6
:100670008B859C8508950E9423050E94FD03C3CFAE
:10068000EA930E940A02E3E0F0E0B0CFE0E3EA93ED
:100690000E94E60180E991E00197F1F708950E9438
:1006A00014050895E991F991309639F080EA9FE0B8
:1006B0000197F1F7A8953197C9F7089530976040F1
:1006C000704009F070580895552342F4503811F4E1
:1006D000E0FF04C03196691F791F6BF050E857277F
:1006E00011F45F93CFC05F3F31F0660F000C579558
:1006F0006795752F08955F9300200AF0CFC0C8C09A
:1007000050E8192E1522880F991F9527550F8795A8
:1007100050E8072E0522660F771F7527550F67953E
:100720000895689401C0E8945F93F2DF703818F080
:100730007F3F08F4A7C056E1571BAAF451955830E3
:100740000EF4593030F0EFEFFFEF6FEF7FE777F9FE
:100750001AC077275523B9F0EE0FFF1F661F771FCA
:100760005A95D1F710C07727583028F0EF2FF62F81
:10077000672F5850F9CF552331F076956795F79547
:10078000E7955A95D1F700200AF441D15F91089579
:10079000689401C0E894309760407040B1F0002444
:1007A00026F0772312F4009432D1172E7EE1112027
:1007B00032F07A95EE0FFF1F661F111CF9CFEF2F55
:1007C000F62F612D5F938ADF5F9108954F93AF01FC
:1007D000FD01DA01AB01BC01CA01402D012C142E30
:1007E0004F910895EA0FFB1F681F0895E095F0955B
:1007F0006095EF5FFF4F6F4F08955F9381DF9038F3
:1008000071F150E8152604C05F937ADF903839F112
:10081000703821F1572F591B2BF112F4D7DFFACF83
:10082000583118F0AA27BB278827583028F0AB2F5B
:10083000B82F88275850F9CF552329F08695B795BA
:10084000A7955A95D9F7502D512572F0CBDF38F482
:100850006795F795E795739513F420C0B7DF3EDFF2
:100860005F910895D8F7FBCFEA1BFB0B680B51F0A3
:1008700010F40094BBDF662392F3EE0FFF1F661F98
:100880007A95CBF7EE27FF27662777275F910895A4
:10089000EFEFFFEF6FE77FEF5F910895EFEFFFEF6F
:1008A0006FE77FE75F9108955F932ADF703851F318
:1008B000903841F301240894791F23F41CF300209D
:1008C0003AF3ECCF0F921F932F933F934F9311273F
:1008D00022279927689FA0018F9F302D410D591F16
:1008E0006B9F300D411D591F8E9F27D0BF9F25D074
:1008F0006A9F23D0BE9F1DD0AF9F1BD0AE9F110D0E
:10090000291F391F491F591FE32FF42F652F522F1D
:100910004F913F912F911F910F9066232AF0550F11
:10092000EE1FFF1F661F02C073954BF2CDDE5F9175
:100930000895100D211D391F02C0200D311D491FC2
:10094000591F08955F93DCDE703821F411200AF4FA
:100950009FCFA4CF903809F495CF01240894970B2A
:100960001BF4D4F30020F3CF792F1F932F933F93E1
:100970004F9311241127222733274427552790E22C
:10098000AE17BF078607410730F0AE1BBF0B860BC3
:10099000410B089401C08894551F221F331F111C5E
:1009A000AA1FBB1F881F441F9A9551F7F901612D9B
:1009B0004F913F912F911F91662332F0550FEE1FFB
:1009C000FF1F661F7A9543F27FDE5F91089599239A
:1009D0009AF0772342F0971748F029F4AE17BF0733
:1009E000860720F031F0989488940895989408949C
:1009F00008951894889408957723C2F7971798F369
:100A0000A9F7EA17FB07680788F399F3ECCFF0958D
:100A100060957095E195FF4F6F4F7F4F08956F2F51
:100A2000660F660B762F0895E881F9816A817B81D4
:100A30000895E883F9836A837B8308957A936A93A0
:100A4000FA93EA930895182E862F612D192E972F69
:100A5000712D1B2EBF2FF12D1A2EAE2FE12D0895D3
:00000001FF
